{
  "contractName": "EventEmitter",
  "abi": [
    {
      "anonymous": false,
      "inputs": [
        {
          "indexed": false,
          "internalType": "uint256",
          "name": "_requestId",
          "type": "uint256"
        }
      ],
      "name": "Fulfill",
      "type": "event"
    },
    {
      "inputs": [
        {
          "internalType": "uint256",
          "name": "_requestId",
          "type": "uint256"
        }
      ],
      "name": "emitFulfill",
      "outputs": [
        {
          "internalType": "bool",
          "name": "",
          "type": "bool"
        }
      ],
      "stateMutability": "nonpayable",
      "type": "function"
    },
    {
      "inputs": [],
      "name": "emitFulfillSelector",
      "outputs": [
        {
          "internalType": "bytes4",
          "name": "_selector",
          "type": "bytes4"
        }
      ],
      "stateMutability": "pure",
      "type": "function"
    }
  ],
  "bytecode": "0x608060405234801561001057600080fd5b50610163806100206000396000f3fe608060405234801561001057600080fd5b50600436106100355760003560e01c8062c4abfc1461003a57806377be53cd14610096575b600080fd5b6100426100dc565b60405180827bffffffffffffffffffffffffffffffffffffffffffffffffffffffff19167bffffffffffffffffffffffffffffffffffffffffffffffffffffffff1916815260200191505060405180910390f35b6100c2600480360360208110156100ac57600080fd5b81019080803590602001909291905050506100eb565b604051808215151515815260200191505060405180910390f35b60006377be53cd60e01b905090565b60007fb86a7c71c428ea302b89f0cabb959f3cc0966aad82fcb52a86cba7d1fb25ac4c826040518082815260200191505060405180910390a16001905091905056fea26469706673582212204ed536eff9a80d6db2199ef63f46546ba45988ab959d8a586eed4946f12c7b1b64736f6c63430006000033",
  "source": "pragma solidity ^0.6.0;\n\n// SPDX-License-Identifier: MIT\n\ncontract EventEmitter {\n    event Fulfill(uint256 _requestId);\n    \n    function emitFulfill(uint256 _requestId) public returns (bool) {\n        emit Fulfill(_requestId);\n        return true;\n    }\n    \n    function emitFulfillSelector() public pure returns (bytes4 _selector) {\n        return this.emitFulfill.selector;\n    }\n}\n",
  "sourcePath": "/home/abdulhafiz/Documents/Projects/swipswap/contracts/contracts/SwipSwapEventEmitter.sol",
  "compiler": {
    "name": "solc",
    "version": "0.6.0+commit.26b70077.Emscripten.clang"
  },
  "schemaVersion": "3.2.5",
  "updatedAt": "2020-10-22T08:24:38.278Z",
  "devdoc": {
    "methods": {}
  },
  "userdoc": {
    "methods": {}
  }
}