{
  "contractName": "SwipSwapPool",
  "abi": [
    {
      "inputs": [],
      "stateMutability": "nonpayable",
      "type": "constructor"
    },
    {
      "anonymous": false,
      "inputs": [
        {
          "indexed": true,
          "internalType": "bytes32",
          "name": "id",
          "type": "bytes32"
        }
      ],
      "name": "ChainlinkCancelled",
      "type": "event"
    },
    {
      "anonymous": false,
      "inputs": [
        {
          "indexed": true,
          "internalType": "bytes32",
          "name": "id",
          "type": "bytes32"
        }
      ],
      "name": "ChainlinkFulfilled",
      "type": "event"
    },
    {
      "anonymous": false,
      "inputs": [
        {
          "indexed": true,
          "internalType": "bytes32",
          "name": "id",
          "type": "bytes32"
        }
      ],
      "name": "ChainlinkRequested",
      "type": "event"
    },
    {
      "anonymous": false,
      "inputs": [
        {
          "indexed": false,
          "internalType": "string",
          "name": "_requestId",
          "type": "string"
        }
      ],
      "name": "Fulfill",
      "type": "event"
    },
    {
      "anonymous": false,
      "inputs": [
        {
          "indexed": true,
          "internalType": "address",
          "name": "_locker",
          "type": "address"
        },
        {
          "indexed": true,
          "internalType": "address",
          "name": "_lockAddress",
          "type": "address"
        },
        {
          "indexed": false,
          "internalType": "uint256",
          "name": "_index",
          "type": "uint256"
        },
        {
          "indexed": false,
          "internalType": "uint256",
          "name": "_amount",
          "type": "uint256"
        },
        {
          "indexed": false,
          "internalType": "bytes32",
          "name": "_requestID",
          "type": "bytes32"
        }
      ],
      "name": "FulfillLock",
      "type": "event"
    },
    {
      "anonymous": false,
      "inputs": [
        {
          "indexed": true,
          "internalType": "address",
          "name": "_locker",
          "type": "address"
        },
        {
          "indexed": true,
          "internalType": "address",
          "name": "_poolAddress",
          "type": "address"
        },
        {
          "indexed": false,
          "internalType": "uint256",
          "name": "_index",
          "type": "uint256"
        },
        {
          "indexed": false,
          "internalType": "uint256",
          "name": "_amount",
          "type": "uint256"
        }
      ],
      "name": "NewLock",
      "type": "event"
    },
    {
      "anonymous": false,
      "inputs": [
        {
          "indexed": true,
          "internalType": "address",
          "name": "_deployer",
          "type": "address"
        },
        {
          "indexed": true,
          "internalType": "address",
          "name": "_initiator",
          "type": "address"
        },
        {
          "indexed": true,
          "internalType": "address",
          "name": "_token",
          "type": "address"
        }
      ],
      "name": "PoolInitialized",
      "type": "event"
    },
    {
      "anonymous": false,
      "inputs": [
        {
          "indexed": true,
          "internalType": "address",
          "name": "_poolOwner",
          "type": "address"
        },
        {
          "indexed": false,
          "internalType": "uint256",
          "name": "_amount",
          "type": "uint256"
        }
      ],
      "name": "PoolJoined",
      "type": "event"
    },
    {
      "inputs": [],
      "name": "coindecimals",
      "outputs": [
        {
          "internalType": "uint256",
          "name": "",
          "type": "uint256"
        }
      ],
      "stateMutability": "view",
      "type": "function",
      "constant": true
    },
    {
      "inputs": [],
      "name": "deployer",
      "outputs": [
        {
          "internalType": "address payable",
          "name": "",
          "type": "address"
        }
      ],
      "stateMutability": "view",
      "type": "function",
      "constant": true
    },
    {
      "inputs": [],
      "name": "eventEmitter",
      "outputs": [
        {
          "internalType": "address",
          "name": "",
          "type": "address"
        }
      ],
      "stateMutability": "view",
      "type": "function",
      "constant": true
    },
    {
      "inputs": [],
      "name": "fulfillReqCount",
      "outputs": [
        {
          "internalType": "uint256",
          "name": "",
          "type": "uint256"
        }
      ],
      "stateMutability": "view",
      "type": "function",
      "constant": true
    },
    {
      "inputs": [],
      "name": "initiator",
      "outputs": [
        {
          "internalType": "address payable",
          "name": "",
          "type": "address"
        }
      ],
      "stateMutability": "view",
      "type": "function",
      "constant": true
    },
    {
      "inputs": [],
      "name": "token",
      "outputs": [
        {
          "internalType": "contract Token",
          "name": "",
          "type": "address"
        }
      ],
      "stateMutability": "view",
      "type": "function",
      "constant": true
    },
    {
      "inputs": [
        {
          "internalType": "address payable",
          "name": "_initiator",
          "type": "address"
        },
        {
          "internalType": "address",
          "name": "_token",
          "type": "address"
        },
        {
          "internalType": "uint256",
          "name": "_coindecimals",
          "type": "uint256"
        },
        {
          "internalType": "address",
          "name": "_eventEmitter",
          "type": "address"
        }
      ],
      "name": "initialize",
      "outputs": [],
      "stateMutability": "nonpayable",
      "type": "function"
    },
    {
      "inputs": [
        {
          "internalType": "address",
          "name": "_eventEmitter",
          "type": "address"
        }
      ],
      "name": "setEventEmitterAddress",
      "outputs": [],
      "stateMutability": "nonpayable",
      "type": "function"
    },
    {
      "inputs": [
        {
          "internalType": "bytes32",
          "name": "_jobID",
          "type": "bytes32"
        }
      ],
      "name": "setJobID",
      "outputs": [],
      "stateMutability": "nonpayable",
      "type": "function"
    },
    {
      "inputs": [
        {
          "internalType": "uint256",
          "name": "_amount",
          "type": "uint256"
        },
        {
          "internalType": "string",
          "name": "_pubkey",
          "type": "string"
        },
        {
          "internalType": "address",
          "name": "_token",
          "type": "address"
        }
      ],
      "name": "joinPool",
      "outputs": [
        {
          "internalType": "bool",
          "name": "",
          "type": "bool"
        }
      ],
      "stateMutability": "payable",
      "type": "function",
      "payable": true
    },
    {
      "inputs": [
        {
          "internalType": "address",
          "name": "_poolAddress",
          "type": "address"
        }
      ],
      "name": "getPoolDetails",
      "outputs": [
        {
          "internalType": "string",
          "name": "pubkey",
          "type": "string"
        },
        {
          "internalType": "uint256",
          "name": "index",
          "type": "uint256"
        },
        {
          "internalType": "uint256",
          "name": "initAmount",
          "type": "uint256"
        },
        {
          "internalType": "uint256",
          "name": "unlockedAmount",
          "type": "uint256"
        },
        {
          "internalType": "uint256",
          "name": "lockedAmount",
          "type": "uint256"
        },
        {
          "internalType": "uint256",
          "name": "filledAmount",
          "type": "uint256"
        },
        {
          "internalType": "bool",
          "name": "isLocked",
          "type": "bool"
        }
      ],
      "stateMutability": "view",
      "type": "function",
      "constant": true
    },
    {
      "inputs": [
        {
          "internalType": "address",
          "name": "_poolAddress",
          "type": "address"
        },
        {
          "internalType": "uint256",
          "name": "_index",
          "type": "uint256"
        }
      ],
      "name": "getLockDetails",
      "outputs": [
        {
          "internalType": "address",
          "name": "locker",
          "type": "address"
        },
        {
          "internalType": "uint256",
          "name": "expBlock",
          "type": "uint256"
        },
        {
          "internalType": "uint256",
          "name": "tokenAmount",
          "type": "uint256"
        },
        {
          "internalType": "bool",
          "name": "isCancelled",
          "type": "bool"
        },
        {
          "internalType": "bool",
          "name": "isFinalised",
          "type": "bool"
        },
        {
          "internalType": "bool",
          "name": "isPaid",
          "type": "bool"
        }
      ],
      "stateMutability": "view",
      "type": "function",
      "constant": true
    },
    {
      "inputs": [
        {
          "internalType": "address",
          "name": "_token",
          "type": "address"
        },
        {
          "internalType": "address",
          "name": "_poolAddress",
          "type": "address"
        },
        {
          "internalType": "uint256",
          "name": "_index",
          "type": "uint256"
        },
        {
          "internalType": "uint256",
          "name": "_coinAmount",
          "type": "uint256"
        }
      ],
      "name": "newLock",
      "outputs": [
        {
          "internalType": "bool",
          "name": "",
          "type": "bool"
        }
      ],
      "stateMutability": "payable",
      "type": "function",
      "payable": true
    },
    {
      "inputs": [
        {
          "internalType": "bytes",
          "name": "_callData",
          "type": "bytes"
        },
        {
          "internalType": "address",
          "name": "_lockAddress",
          "type": "address"
        },
        {
          "internalType": "uint256",
          "name": "_predefinedCall",
          "type": "uint256"
        },
        {
          "internalType": "address",
          "name": "_callContractAddress",
          "type": "address"
        },
        {
          "internalType": "string",
          "name": "_indexStr",
          "type": "string"
        },
        {
          "internalType": "uint256",
          "name": "_index",
          "type": "uint256"
        }
      ],
      "name": "fulfillLock",
      "outputs": [
        {
          "internalType": "bool",
          "name": "success",
          "type": "bool"
        }
      ],
      "stateMutability": "nonpayable",
      "type": "function"
    },
    {
      "inputs": [
        {
          "internalType": "bytes32",
          "name": "_requestId",
          "type": "bytes32"
        },
        {
          "internalType": "uint256",
          "name": "total_received",
          "type": "uint256"
        }
      ],
      "name": "fulfill",
      "outputs": [],
      "stateMutability": "nonpayable",
      "type": "function"
    },
    {
      "inputs": [
        {
          "internalType": "uint256",
          "name": "_fulfillReqCount",
          "type": "uint256"
        }
      ],
      "name": "finaliseLock",
      "outputs": [
        {
          "internalType": "bool",
          "name": "",
          "type": "bool"
        }
      ],
      "stateMutability": "nonpayable",
      "type": "function"
    },
    {
      "inputs": [],
      "name": "finaliseLockSelector",
      "outputs": [
        {
          "internalType": "bytes4",
          "name": "_selector",
          "type": "bytes4"
        }
      ],
      "stateMutability": "pure",
      "type": "function",
      "constant": true
    },
    {
      "inputs": [],
      "name": "cancelLock",
      "outputs": [],
      "stateMutability": "nonpayable",
      "type": "function"
    },
    {
      "inputs": [],
      "name": "lockPool",
      "outputs": [],
      "stateMutability": "nonpayable",
      "type": "function"
    },
    {
      "inputs": [],
      "name": "increasePoolAmount",
      "outputs": [],
      "stateMutability": "nonpayable",
      "type": "function"
    },
    {
      "inputs": [],
      "name": "withdrawPool",
      "outputs": [],
      "stateMutability": "nonpayable",
      "type": "function"
    },
    {
      "inputs": [
        {
          "internalType": "address",
          "name": "_lockPool",
          "type": "address"
        },
        {
          "internalType": "uint256",
          "name": "_index",
          "type": "uint256"
        }
      ],
      "name": "getLocker",
      "outputs": [
        {
          "internalType": "address",
          "name": "locker",
          "type": "address"
        }
      ],
      "stateMutability": "view",
      "type": "function",
      "constant": true
    },
    {
      "inputs": [],
      "name": "getZeroAddress",
      "outputs": [
        {
          "internalType": "address",
          "name": "",
          "type": "address"
        }
      ],
      "stateMutability": "pure",
      "type": "function",
      "constant": true
    },
    {
      "inputs": [
        {
          "internalType": "bytes32",
          "name": "_bytes32",
          "type": "bytes32"
        }
      ],
      "name": "bytes32ToString",
      "outputs": [
        {
          "internalType": "string",
          "name": "",
          "type": "string"
        }
      ],
      "stateMutability": "pure",
      "type": "function",
      "constant": true
    },
    {
      "inputs": [
        {
          "internalType": "string",
          "name": "source",
          "type": "string"
        }
      ],
      "name": "stringToBytes32",
      "outputs": [
        {
          "internalType": "bytes32",
          "name": "result",
          "type": "bytes32"
        }
      ],
      "stateMutability": "pure",
      "type": "function",
      "constant": true
    }
  ],
  "bytecode": "0x608060405260016004553480156200001657600080fd5b506200003c7387ae97f105eba72e3b26dbb27b09bde5943df2bd620000cd60201b60201c565b73dccc8028cfb3f8d489719bbfc7389b00b3d4afc3600660006101000a81548173ffffffffffffffffffffffffffffffffffffffff021916908373ffffffffffffffffffffffffffffffffffffffff1602179055507f333837633361323334346530346333393835383761666431336635306365613560078190555067016345785d8a000060088190555062000111565b80600260006101000a81548173ffffffffffffffffffffffffffffffffffffffff021916908373ffffffffffffffffffffffffffffffffffffffff16021790555050565b615a6d80620001216000396000f3fe6080604052600436106101665760003560e01c80639201de55116100d1578063cfb519281161008a578063f3c5b8a911610064578063f3c5b8a9146109e3578063f4d7528314610bae578063faa0b6b714610cab578063fc0c546a14610ce657610166565b8063cfb51928146107b8578063d3e90fa014610894578063d5f394881461098c57610166565b80639201de55146104d85780639483fbcb1461058c5780639ff78c30146105e3578063a4724fe81461063a578063b5642a161461068d578063be2030941461071d57610166565b80634e313f02116101235780634e313f021461030d5780635b765b64146103385780635c39fcc1146103895780635c42c733146103e057806369ec6c1e146103f7578063711206861461040e57610166565b806305bf82621461016b57806306b9c0bf146102065780630b80f7771461026f5780634026478e146102865780634357855e1461029d578063483d589c146102e2575b600080fd5b34801561017757600080fd5b506101c46004803603604081101561018e57600080fd5b81019080803573ffffffffffffffffffffffffffffffffffffffff16906020019092919080359060200190929190505050610d3d565b604051808273ffffffffffffffffffffffffffffffffffffffff1673ffffffffffffffffffffffffffffffffffffffff16815260200191505060405180910390f35b34801561021257600080fd5b5061021b610dbb565b60405180827bffffffffffffffffffffffffffffffffffffffffffffffffffffffff19167bffffffffffffffffffffffffffffffffffffffffffffffffffffffff1916815260200191505060405180910390f35b34801561027b57600080fd5b50610284610dca565b005b34801561029257600080fd5b5061029b610dcc565b005b3480156102a957600080fd5b506102e0600480360360408110156102c057600080fd5b810190808035906020019092919080359060200190929190505050610dce565b005b3480156102ee57600080fd5b506102f76117bc565b6040518082815260200191505060405180910390f35b34801561031957600080fd5b506103226117c2565b6040518082815260200191505060405180910390f35b34801561034457600080fd5b506103876004803603602081101561035b57600080fd5b81019080803573ffffffffffffffffffffffffffffffffffffffff1690602001909291905050506117c8565b005b34801561039557600080fd5b5061039e61180c565b604051808273ffffffffffffffffffffffffffffffffffffffff1673ffffffffffffffffffffffffffffffffffffffff16815260200191505060405180910390f35b3480156103ec57600080fd5b506103f5611832565b005b34801561040357600080fd5b5061040c611834565b005b34801561041a57600080fd5b506104676004803603604081101561043157600080fd5b81019080803573ffffffffffffffffffffffffffffffffffffffff16906020019092919080359060200190929190505050611836565b604051808773ffffffffffffffffffffffffffffffffffffffff1673ffffffffffffffffffffffffffffffffffffffff168152602001868152602001858152602001841515151581526020018315151515815260200182151515158152602001965050505050505060405180910390f35b3480156104e457600080fd5b50610511600480360360208110156104fb57600080fd5b8101908080359060200190929190505050611b01565b6040518080602001828103825283818151815260200191508051906020019080838360005b83811015610551578082015181840152602081019050610536565b50505050905090810190601f16801561057e5780820380516001836020036101000a031916815260200191505b509250505060405180910390f35b34801561059857600080fd5b506105a1611c5e565b604051808273ffffffffffffffffffffffffffffffffffffffff1673ffffffffffffffffffffffffffffffffffffffff16815260200191505060405180910390f35b3480156105ef57600080fd5b506105f8611c66565b604051808273ffffffffffffffffffffffffffffffffffffffff1673ffffffffffffffffffffffffffffffffffffffff16815260200191505060405180910390f35b34801561064657600080fd5b506106736004803603602081101561065d57600080fd5b8101908080359060200190929190505050611c8c565b604051808215151515815260200191505060405180910390f35b610703600480360360808110156106a357600080fd5b81019080803573ffffffffffffffffffffffffffffffffffffffff169060200190929190803573ffffffffffffffffffffffffffffffffffffffff16906020019092919080359060200190929190803590602001909291905050506123bb565b604051808215151515815260200191505060405180910390f35b34801561072957600080fd5b506107b66004803603608081101561074057600080fd5b81019080803573ffffffffffffffffffffffffffffffffffffffff169060200190929190803573ffffffffffffffffffffffffffffffffffffffff16906020019092919080359060200190929190803573ffffffffffffffffffffffffffffffffffffffff169060200190929190505050613449565b005b3480156107c457600080fd5b5061087e600480360360208110156107db57600080fd5b81019080803590602001906401000000008111156107f857600080fd5b82018360208201111561080a57600080fd5b8035906020019184600183028401116401000000008311171561082c57600080fd5b91908080601f016020809104026020016040519081016040528093929190818152602001838380828437600081840152601f19601f8201169050808301925050505050505091929192905050506135cb565b6040518082815260200191505060405180910390f35b3480156108a057600080fd5b506108e3600480360360208110156108b757600080fd5b81019080803573ffffffffffffffffffffffffffffffffffffffff1690602001909291905050506135f6565b604051808060200188815260200187815260200186815260200185815260200184815260200183151515158152602001828103825289818151815260200191508051906020019080838360005b8381101561094b578082015181840152602081019050610930565b50505050905090810190601f1680156109785780820380516001836020036101000a031916815260200191505b509850505050505050505060405180910390f35b34801561099857600080fd5b506109a1613781565b604051808273ffffffffffffffffffffffffffffffffffffffff1673ffffffffffffffffffffffffffffffffffffffff16815260200191505060405180910390f35b3480156109ef57600080fd5b50610b94600480360360c0811015610a0657600080fd5b8101908080359060200190640100000000811115610a2357600080fd5b820183602082011115610a3557600080fd5b80359060200191846001830284011164010000000083111715610a5757600080fd5b91908080601f016020809104026020016040519081016040528093929190818152602001838380828437600081840152601f19601f820116905080830192505050505050509192919290803573ffffffffffffffffffffffffffffffffffffffff16906020019092919080359060200190929190803573ffffffffffffffffffffffffffffffffffffffff16906020019092919080359060200190640100000000811115610b0457600080fd5b820183602082011115610b1657600080fd5b80359060200191846001830284011164010000000083111715610b3857600080fd5b91908080601f016020809104026020016040519081016040528093929190818152602001838380828437600081840152601f19601f820116905080830192505050505050509192919290803590602001909291905050506137a7565b604051808215151515815260200191505060405180910390f35b610c9160048036036060811015610bc457600080fd5b810190808035906020019092919080359060200190640100000000811115610beb57600080fd5b820183602082011115610bfd57600080fd5b80359060200191846001830284011164010000000083111715610c1f57600080fd5b91908080601f016020809104026020016040519081016040528093929190818152602001838380828437600081840152601f19601f820116905080830192505050505050509192919290803573ffffffffffffffffffffffffffffffffffffffff169060200190929190505050614430565b604051808215151515815260200191505060405180910390f35b348015610cb757600080fd5b50610ce460048036036020811015610cce57600080fd5b81019080803590602001909291905050506149aa565b005b348015610cf257600080fd5b50610cfb614a77565b604051808273ffffffffffffffffffffffffffffffffffffffff1673ffffffffffffffffffffffffffffffffffffffff16815260200191505060405180910390f35b6000601160008473ffffffffffffffffffffffffffffffffffffffff1673ffffffffffffffffffffffffffffffffffffffff168152602001908152602001600020600083815260200190815260200160002060000160009054906101000a900473ffffffffffffffffffffffffffffffffffffffff16905092915050565b600063a4724fe860e01b905090565b565b565b816005600082815260200190815260200160002060009054906101000a900473ffffffffffffffffffffffffffffffffffffffff1673ffffffffffffffffffffffffffffffffffffffff163373ffffffffffffffffffffffffffffffffffffffff1614610e86576040517f08c379a0000000000000000000000000000000000000000000000000000000008152600401808060200182810382526028815260200180615a106028913960400191505060405180910390fd5b6005600082815260200190815260200160002060006101000a81549073ffffffffffffffffffffffffffffffffffffffff0219169055807f7cc135e0cebb02c3480ae5d74d377283180a2601f8f644edf7987b009316c63a60405160405180910390a2600060136000858152602001908152602001600020549050610f0961571a565b60126000838152602001908152602001600020604051806101800160405290816000820160009054906101000a900473ffffffffffffffffffffffffffffffffffffffff1673ffffffffffffffffffffffffffffffffffffffff1673ffffffffffffffffffffffffffffffffffffffff1681526020016001820154815260200160028201548152602001600382015481526020016004820160009054906101000a900460ff161515151581526020016004820160019054906101000a900460ff161515151581526020016004820160029054906101000a900460ff161515151581526020016004820160039054906101000a900473ffffffffffffffffffffffffffffffffffffffff1673ffffffffffffffffffffffffffffffffffffffff1673ffffffffffffffffffffffffffffffffffffffff16815260200160058201548152602001600682015481526020016007820160009054906101000a900473ffffffffffffffffffffffffffffffffffffffff1673ffffffffffffffffffffffffffffffffffffffff1673ffffffffffffffffffffffffffffffffffffffff168152602001600882018054600181600116156101000203166002900480601f0160208091040260200160405190810160405280929190818152602001828054600181600116156101000203166002900480156111465780601f1061111b57610100808354040283529160200191611146565b820191906000526020600020905b81548152906001019060200180831161112957829003601f168201915b5050505050815250509050806040015184106117b55760018160a0019015159081151581525050806012600084815260200190815260200160002060008201518160000160006101000a81548173ffffffffffffffffffffffffffffffffffffffff021916908373ffffffffffffffffffffffffffffffffffffffff16021790555060208201518160010155604082015181600201556060820151816003015560808201518160040160006101000a81548160ff02191690831515021790555060a08201518160040160016101000a81548160ff02191690831515021790555060c08201518160040160026101000a81548160ff02191690831515021790555060e08201518160040160036101000a81548173ffffffffffffffffffffffffffffffffffffffff021916908373ffffffffffffffffffffffffffffffffffffffff160217905550610100820151816005015561012082015181600601556101408201518160070160006101000a81548173ffffffffffffffffffffffffffffffffffffffff021916908373ffffffffffffffffffffffffffffffffffffffff1602179055506101608201518160080190805190602001906113089291906157c3565b5090505080601160008360e0015173ffffffffffffffffffffffffffffffffffffffff1673ffffffffffffffffffffffffffffffffffffffff1681526020019081526020016000206000836101000151815260200190815260200160002060008201518160000160006101000a81548173ffffffffffffffffffffffffffffffffffffffff021916908373ffffffffffffffffffffffffffffffffffffffff16021790555060208201518160010155604082015181600201556060820151816003015560808201518160040160006101000a81548160ff02191690831515021790555060a08201518160040160016101000a81548160ff02191690831515021790555060c08201518160040160026101000a81548160ff02191690831515021790555060e08201518160040160036101000a81548173ffffffffffffffffffffffffffffffffffffffff021916908373ffffffffffffffffffffffffffffffffffffffff160217905550610100820151816005015561012082015181600601556101408201518160070160006101000a81548173ffffffffffffffffffffffffffffffffffffffff021916908373ffffffffffffffffffffffffffffffffffffffff1602179055506101608201518160080190805190602001906114ed9291906157c3565b509050506114f9615843565b601060008360e0015173ffffffffffffffffffffffffffffffffffffffff1673ffffffffffffffffffffffffffffffffffffffff1681526020019081526020016000206040518060e0016040529081600082018054600181600116156101000203166002900480601f0160208091040260200160405190810160405280929190818152602001828054600181600116156101000203166002900480156115e05780601f106115b5576101008083540402835291602001916115e0565b820191906000526020600020905b8154815290600101906020018083116115c357829003601f168201915b5050505050815260200160018201548152602001600282015481526020016003820154815260200160048201548152602001600582015481526020016006820160009054906101000a900460ff161515151581525050905081606001518160a001818151019150818152505080601060008460e0015173ffffffffffffffffffffffffffffffffffffffff1673ffffffffffffffffffffffffffffffffffffffff16815260200190815260200160002060008201518160000190805190602001906116ac929190615882565b506020820151816001015560408201518160020155606082015181600301556080820151816004015560a0820151816005015560c08201518160060160006101000a81548160ff021916908315150217905550905050600d60009054906101000a900473ffffffffffffffffffffffffffffffffffffffff1673ffffffffffffffffffffffffffffffffffffffff166377be53cd846040518263ffffffff1660e01b815260040180828152602001915050602060405180830381600087803b15801561177757600080fd5b505af115801561178b573d6000803e3d6000fd5b505050506040513d60208110156117a157600080fd5b810190808051906020019092919050505050505b5050505050565b600a5481565b600f5481565b80600d60006101000a81548173ffffffffffffffffffffffffffffffffffffffff021916908373ffffffffffffffffffffffffffffffffffffffff16021790555050565b600b60009054906101000a900473ffffffffffffffffffffffffffffffffffffffff1681565b565b565b60008060008060008061184761571a565b601160008a73ffffffffffffffffffffffffffffffffffffffff1673ffffffffffffffffffffffffffffffffffffffff1681526020019081526020016000206000898152602001908152602001600020604051806101800160405290816000820160009054906101000a900473ffffffffffffffffffffffffffffffffffffffff1673ffffffffffffffffffffffffffffffffffffffff1673ffffffffffffffffffffffffffffffffffffffff1681526020016001820154815260200160028201548152602001600382015481526020016004820160009054906101000a900460ff161515151581526020016004820160019054906101000a900460ff161515151581526020016004820160029054906101000a900460ff161515151581526020016004820160039054906101000a900473ffffffffffffffffffffffffffffffffffffffff1673ffffffffffffffffffffffffffffffffffffffff1673ffffffffffffffffffffffffffffffffffffffff16815260200160058201548152602001600682015481526020016007820160009054906101000a900473ffffffffffffffffffffffffffffffffffffffff1673ffffffffffffffffffffffffffffffffffffffff1673ffffffffffffffffffffffffffffffffffffffff168152602001600882018054600181600116156101000203166002900480601f016020809104026020016040519081016040528092919081815260200182805460018160011615610100020316600290048015611ac15780601f10611a9657610100808354040283529160200191611ac1565b820191906000526020600020905b815481529060010190602001808311611aa457829003601f168201915b5050505050815250509050806000015196508060200151955080606001519450806080015193508060c0015192508060a001519150509295509295509295565b606060008090505b60208160ff16108015611b545750600060f81b838260ff1660208110611b2b57fe5b1a60f81b7effffffffffffffffffffffffffffffffffffffffffffffffffffffffffffff191614155b15611b66578080600101915050611b09565b60608160ff166040519080825280601f01601f191660200182016040528015611b9e5781602001600182028038833980820191505090505b509050600091505b60208260ff16108015611bf15750600060f81b848360ff1660208110611bc857fe5b1a60f81b7effffffffffffffffffffffffffffffffffffffffffffffffffffffffffffff191614155b15611c5457838260ff1660208110611c0557fe5b1a60f81b818360ff1681518110611c1857fe5b60200101907effffffffffffffffffffffffffffffffffffffffffffffffffffffffffffff1916908160001a9053508180600101925050611ba6565b8092505050919050565b600080905090565b600d60009054906101000a900473ffffffffffffffffffffffffffffffffffffffff1681565b6000611c9661571a565b60126000848152602001908152602001600020604051806101800160405290816000820160009054906101000a900473ffffffffffffffffffffffffffffffffffffffff1673ffffffffffffffffffffffffffffffffffffffff1673ffffffffffffffffffffffffffffffffffffffff1681526020016001820154815260200160028201548152602001600382015481526020016004820160009054906101000a900460ff161515151581526020016004820160019054906101000a900460ff161515151581526020016004820160029054906101000a900460ff161515151581526020016004820160039054906101000a900473ffffffffffffffffffffffffffffffffffffffff1673ffffffffffffffffffffffffffffffffffffffff1673ffffffffffffffffffffffffffffffffffffffff16815260200160058201548152602001600682015481526020016007820160009054906101000a900473ffffffffffffffffffffffffffffffffffffffff1673ffffffffffffffffffffffffffffffffffffffff1673ffffffffffffffffffffffffffffffffffffffff168152602001600882018054600181600116156101000203166002900480601f016020809104026020016040519081016040528092919081815260200182805460018160011615610100020316600290048015611ed35780601f10611ea857610100808354040283529160200191611ed3565b820191906000526020600020905b815481529060010190602001808311611eb657829003601f168201915b50505050508152505090508060a00151611f55576040517f08c379a00000000000000000000000000000000000000000000000000000000081526004018080602001828103825260208152602001807f3a205061796d656e7420686173206e6f74206265656e20636f6e6669726d656481525060200191505060405180910390fd5b8060c0015115611fb0576040517f08c379a00000000000000000000000000000000000000000000000000000000081526004018080602001828103825260248152602001806159ec6024913960400191505060405180910390fd5b60018160c00190151590811515815250506000816101200151141561203157806000015173ffffffffffffffffffffffffffffffffffffffff166108fc82606001519081150290604051600060405180830381858888f1935050505015801561201d573d6000803e3d6000fd5b5061203081600001518260600151614a9d565b5b806012600085815260200190815260200160002060008201518160000160006101000a81548173ffffffffffffffffffffffffffffffffffffffff021916908373ffffffffffffffffffffffffffffffffffffffff16021790555060208201518160010155604082015181600201556060820151816003015560808201518160040160006101000a81548160ff02191690831515021790555060a08201518160040160016101000a81548160ff02191690831515021790555060c08201518160040160026101000a81548160ff02191690831515021790555060e08201518160040160036101000a81548173ffffffffffffffffffffffffffffffffffffffff021916908373ffffffffffffffffffffffffffffffffffffffff160217905550610100820151816005015561012082015181600601556101408201518160070160006101000a81548173ffffffffffffffffffffffffffffffffffffffff021916908373ffffffffffffffffffffffffffffffffffffffff1602179055506101608201518160080190805190602001906121cc9291906157c3565b5090505080601160008360e0015173ffffffffffffffffffffffffffffffffffffffff1673ffffffffffffffffffffffffffffffffffffffff1681526020019081526020016000206000836101000151815260200190815260200160002060008201518160000160006101000a81548173ffffffffffffffffffffffffffffffffffffffff021916908373ffffffffffffffffffffffffffffffffffffffff16021790555060208201518160010155604082015181600201556060820151816003015560808201518160040160006101000a81548160ff02191690831515021790555060a08201518160040160016101000a81548160ff02191690831515021790555060c08201518160040160026101000a81548160ff02191690831515021790555060e08201518160040160036101000a81548173ffffffffffffffffffffffffffffffffffffffff021916908373ffffffffffffffffffffffffffffffffffffffff160217905550610100820151816005015561012082015181600601556101408201518160070160006101000a81548173ffffffffffffffffffffffffffffffffffffffff021916908373ffffffffffffffffffffffffffffffffffffffff1602179055506101608201518160080190805190602001906123b19291906157c3565b5090505050919050565b600083836123c761571a565b601160008473ffffffffffffffffffffffffffffffffffffffff1673ffffffffffffffffffffffffffffffffffffffff1681526020019081526020016000206000838152602001908152602001600020604051806101800160405290816000820160009054906101000a900473ffffffffffffffffffffffffffffffffffffffff1673ffffffffffffffffffffffffffffffffffffffff1673ffffffffffffffffffffffffffffffffffffffff1681526020016001820154815260200160028201548152602001600382015481526020016004820160009054906101000a900460ff161515151581526020016004820160019054906101000a900460ff161515151581526020016004820160029054906101000a900460ff161515151581526020016004820160039054906101000a900473ffffffffffffffffffffffffffffffffffffffff1673ffffffffffffffffffffffffffffffffffffffff1673ffffffffffffffffffffffffffffffffffffffff16815260200160058201548152602001600682015481526020016007820160009054906101000a900473ffffffffffffffffffffffffffffffffffffffff1673ffffffffffffffffffffffffffffffffffffffff1673ffffffffffffffffffffffffffffffffffffffff168152602001600882018054600181600116156101000203166002900480601f0160208091040260200160405190810160405280929190818152602001828054600181600116156101000203166002900480156126415780601f1061261657610100808354040283529160200191612641565b820191906000526020600020905b81548152906001019060200180831161262457829003601f168201915b5050505050815250509050438160200151106126c5576040517f08c379a00000000000000000000000000000000000000000000000000000000081526004018080602001828103825260158152602001807f426c6f636b20686173206e6f742065787069726564000000000000000000000081525060200191505060405180910390fd5b8060c001511561273d576040517f08c379a000000000000000000000000000000000000000000000000000000000815260040180806020018281038252601b8152602001807f3a206c6f636b20697320616c72656164792066696e616c69736564000000000081525060200191505060405180910390fd5b8060800151156127b5576040517f08c379a00000000000000000000000000000000000000000000000000000000081526004018080602001828103825260158152602001807f3a206c6f636b20697320697343616e63656c6c6564000000000000000000000081525060200191505060405180910390fd5b878073ffffffffffffffffffffffffffffffffffffffff16600e60009054906101000a900473ffffffffffffffffffffffffffffffffffffffff1673ffffffffffffffffffffffffffffffffffffffff1614612879576040517f08c379a00000000000000000000000000000000000000000000000000000000081526004018080602001828103825260158152602001807f3a20546f6b656e206e6f7420737570706f72746564000000000000000000000081525060200191505060405180910390fd5b612881615843565b601060008a73ffffffffffffffffffffffffffffffffffffffff1673ffffffffffffffffffffffffffffffffffffffff1681526020019081526020016000206040518060e0016040529081600082018054600181600116156101000203166002900480601f0160208091040260200160405190810160405280929190818152602001828054600181600116156101000203166002900480156129645780601f1061293957610100808354040283529160200191612964565b820191906000526020600020905b81548152906001019060200180831161294757829003601f168201915b5050505050815260200160018201548152602001600282015481526020016003820154815260200160048201548152602001600582015481526020016006820160009054906101000a900460ff161515151581525050905060008160c0015115612a36576040517f08c379a000000000000000000000000000000000000000000000000000000000815260040180806020018281038252601d8152602001807f3a20506f6f6c206973206c6f636b656420627920746865206f776e657200000081525060200191505060405180910390fd5b60003390506000600a54601203600a0a60648b0202905060008b1415612ae5578084606001511015612ad0576040517f08c379a000000000000000000000000000000000000000000000000000000000815260040180806020018281038252601b8152602001807f3a20496e73756666696369656e7420706f6f6c2062616c616e6365000000000081525060200191505060405180910390fd5b8084606001510384606001818152505061306a565b612aed61571a565b601160008e73ffffffffffffffffffffffffffffffffffffffff1673ffffffffffffffffffffffffffffffffffffffff16815260200190815260200160002060008d8152602001908152602001600020604051806101800160405290816000820160009054906101000a900473ffffffffffffffffffffffffffffffffffffffff1673ffffffffffffffffffffffffffffffffffffffff1673ffffffffffffffffffffffffffffffffffffffff1681526020016001820154815260200160028201548152602001600382015481526020016004820160009054906101000a900460ff161515151581526020016004820160019054906101000a900460ff161515151581526020016004820160029054906101000a900460ff161515151581526020016004820160039054906101000a900473ffffffffffffffffffffffffffffffffffffffff1673ffffffffffffffffffffffffffffffffffffffff1673ffffffffffffffffffffffffffffffffffffffff16815260200160058201548152602001600682015481526020016007820160009054906101000a900473ffffffffffffffffffffffffffffffffffffffff1673ffffffffffffffffffffffffffffffffffffffff1673ffffffffffffffffffffffffffffffffffffffff168152602001600882018054600181600116156101000203166002900480601f016020809104026020016040519081016040528092919081815260200182805460018160011615610100020316600290048015612d675780601f10612d3c57610100808354040283529160200191612d67565b820191906000526020600020905b815481529060010190602001808311612d4a57829003601f168201915b50505050508152505090508181606001511015612dec576040517f08c379a000000000000000000000000000000000000000000000000000000000815260040180806020018281038252601b8152602001807f3a20496e73756666696369656e74206c6f636b2062616c616e6365000000000081525060200191505060405180910390fd5b43816020015110612e65576040517f08c379a00000000000000000000000000000000000000000000000000000000081526004018080602001828103825260178152602001807f3a20426c6f636b20686173206e6f74206578706972656400000000000000000081525060200191505060405180910390fd5b81816060015103856060015101856060018181525050600181608001901515908115158152505080601160008f73ffffffffffffffffffffffffffffffffffffffff1673ffffffffffffffffffffffffffffffffffffffff16815260200190815260200160002060008e815260200190815260200160002060008201518160000160006101000a81548173ffffffffffffffffffffffffffffffffffffffff021916908373ffffffffffffffffffffffffffffffffffffffff16021790555060208201518160010155604082015181600201556060820151816003015560808201518160040160006101000a81548160ff02191690831515021790555060a08201518160040160016101000a81548160ff02191690831515021790555060c08201518160040160026101000a81548160ff02191690831515021790555060e08201518160040160036101000a81548173ffffffffffffffffffffffffffffffffffffffff021916908373ffffffffffffffffffffffffffffffffffffffff160217905550610100820151816005015561012082015181600601556101408201518160070160006101000a81548173ffffffffffffffffffffffffffffffffffffffff021916908373ffffffffffffffffffffffffffffffffffffffff1602179055506101608201518160080190805190602001906130649291906157c3565b50905050505b600184602001510192508284602001818152505083601060008e73ffffffffffffffffffffffffffffffffffffffff1673ffffffffffffffffffffffffffffffffffffffff16815260200190815260200160002060008201518160000190805190602001906130da929190615882565b506020820151816001015560408201518160020155606082015181600301556080820151816004015560a0820151816005015560c08201518160060160006101000a81548160ff02191690831515021790555090505061313861571a565b6040518061018001604052808473ffffffffffffffffffffffffffffffffffffffff1681526020016003430181526020018c81526020018381526020016000151581526020016000151581526020016000151581526020018e73ffffffffffffffffffffffffffffffffffffffff16815260200185815260200160008152602001600073ffffffffffffffffffffffffffffffffffffffff16815260200160405180602001604052806000815250815250905080601160008f73ffffffffffffffffffffffffffffffffffffffff1673ffffffffffffffffffffffffffffffffffffffff168152602001908152602001600020600086815260200190815260200160002060008201518160000160006101000a81548173ffffffffffffffffffffffffffffffffffffffff021916908373ffffffffffffffffffffffffffffffffffffffff16021790555060208201518160010155604082015181600201556060820151816003015560808201518160040160006101000a81548160ff02191690831515021790555060a08201518160040160016101000a81548160ff02191690831515021790555060c08201518160040160026101000a81548160ff02191690831515021790555060e08201518160040160036101000a81548173ffffffffffffffffffffffffffffffffffffffff021916908373ffffffffffffffffffffffffffffffffffffffff160217905550610100820151816005015561012082015181600601556101408201518160070160006101000a81548173ffffffffffffffffffffffffffffffffffffffff021916908373ffffffffffffffffffffffffffffffffffffffff1602179055506101608201518160080190805190602001906133c39291906157c3565b509050508c73ffffffffffffffffffffffffffffffffffffffff168373ffffffffffffffffffffffffffffffffffffffff167f360b683997b87e650f5af8bb848bb2f19f0ae44eccf0c5b82553fdd11cc0d3718685604051808381526020018281526020019250505060405180910390a360019950505050505050505050949350505050565b33600c60006101000a81548173ffffffffffffffffffffffffffffffffffffffff021916908373ffffffffffffffffffffffffffffffffffffffff16021790555083600b60006101000a81548173ffffffffffffffffffffffffffffffffffffffff021916908373ffffffffffffffffffffffffffffffffffffffff16021790555082600e60006101000a81548173ffffffffffffffffffffffffffffffffffffffff021916908373ffffffffffffffffffffffffffffffffffffffff16021790555081600a8190555080600d60006101000a81548173ffffffffffffffffffffffffffffffffffffffff021916908373ffffffffffffffffffffffffffffffffffffffff1602179055508273ffffffffffffffffffffffffffffffffffffffff168473ffffffffffffffffffffffffffffffffffffffff163373ffffffffffffffffffffffffffffffffffffffff167fb2684e1b8e116bbb42a14d7a6bc6afa19d85ff0a8666a6b424b79a738c661d8160405160405180910390a450505050565b600060608290506000815114156135e8576000801b9150506135f1565b60208301519150505b919050565b6060600080600080600080613609615843565b601060008a73ffffffffffffffffffffffffffffffffffffffff1673ffffffffffffffffffffffffffffffffffffffff1681526020019081526020016000206040518060e0016040529081600082018054600181600116156101000203166002900480601f0160208091040260200160405190810160405280929190818152602001828054600181600116156101000203166002900480156136ec5780601f106136c1576101008083540402835291602001916136ec565b820191906000526020600020905b8154815290600101906020018083116136cf57829003601f168201915b5050505050815260200160018201548152602001600282015481526020016003820154815260200160048201548152602001600582015481526020016006820160009054906101000a900460ff161515151581525050905080600001519750806020015196508060400151955080606001519450806080015193508060a0015192508060c00151915050919395979092949650565b600c60009054906101000a900473ffffffffffffffffffffffffffffffffffffffff1681565b600085826137b58282610d3d565b73ffffffffffffffffffffffffffffffffffffffff163373ffffffffffffffffffffffffffffffffffffffff1614613855576040517f08c379a000000000000000000000000000000000000000000000000000000000815260040180806020018281038252601a8152602001807f3a2063616c6c6572206973206e6f7420746865206c6f636b657200000000000081525060200191505060405180910390fd5b878461385f61571a565b601160008473ffffffffffffffffffffffffffffffffffffffff1673ffffffffffffffffffffffffffffffffffffffff1681526020019081526020016000206000838152602001908152602001600020604051806101800160405290816000820160009054906101000a900473ffffffffffffffffffffffffffffffffffffffff1673ffffffffffffffffffffffffffffffffffffffff1673ffffffffffffffffffffffffffffffffffffffff1681526020016001820154815260200160028201548152602001600382015481526020016004820160009054906101000a900460ff161515151581526020016004820160019054906101000a900460ff161515151581526020016004820160029054906101000a900460ff161515151581526020016004820160039054906101000a900473ffffffffffffffffffffffffffffffffffffffff1673ffffffffffffffffffffffffffffffffffffffff1673ffffffffffffffffffffffffffffffffffffffff16815260200160058201548152602001600682015481526020016007820160009054906101000a900473ffffffffffffffffffffffffffffffffffffffff1673ffffffffffffffffffffffffffffffffffffffff1673ffffffffffffffffffffffffffffffffffffffff168152602001600882018054600181600116156101000203166002900480601f016020809104026020016040519081016040528092919081815260200182805460018160011615610100020316600290048015613ad95780601f10613aae57610100808354040283529160200191613ad9565b820191906000526020600020905b815481529060010190602001808311613abc57829003601f168201915b505050505081525050905043816020015111613b5d576040517f08c379a00000000000000000000000000000000000000000000000000000000081526004018080602001828103825260118152602001807f426c6f636b20686173206578706972656400000000000000000000000000000081525060200191505060405180910390fd5b8060c0015115613bd5576040517f08c379a000000000000000000000000000000000000000000000000000000000815260040180806020018281038252601b8152602001807f3a206c6f636b20697320616c72656164792066696e616c69736564000000000081525060200191505060405180910390fd5b806080015115613c4d576040517f08c379a00000000000000000000000000000000000000000000000000000000081526004018080602001828103825260158152602001807f3a206c6f636b20697320697343616e63656c6c6564000000000000000000000081525060200191505060405180910390fd5b613c5561571a565b601160008d73ffffffffffffffffffffffffffffffffffffffff1673ffffffffffffffffffffffffffffffffffffffff1681526020019081526020016000206000898152602001908152602001600020604051806101800160405290816000820160009054906101000a900473ffffffffffffffffffffffffffffffffffffffff1673ffffffffffffffffffffffffffffffffffffffff1673ffffffffffffffffffffffffffffffffffffffff1681526020016001820154815260200160028201548152602001600382015481526020016004820160009054906101000a900460ff161515151581526020016004820160019054906101000a900460ff161515151581526020016004820160029054906101000a900460ff161515151581526020016004820160039054906101000a900473ffffffffffffffffffffffffffffffffffffffff1673ffffffffffffffffffffffffffffffffffffffff1673ffffffffffffffffffffffffffffffffffffffff16815260200160058201548152602001600682015481526020016007820160009054906101000a900473ffffffffffffffffffffffffffffffffffffffff1673ffffffffffffffffffffffffffffffffffffffff1673ffffffffffffffffffffffffffffffffffffffff168152602001600882018054600181600116156101000203166002900480601f016020809104026020016040519081016040528092919081815260200182805460018160011615610100020316600290048015613ecf5780601f10613ea457610100808354040283529160200191613ecf565b820191906000526020600020905b815481529060010190602001808311613eb257829003601f168201915b5050505050815250509050613ee2615843565b601060008e73ffffffffffffffffffffffffffffffffffffffff1673ffffffffffffffffffffffffffffffffffffffff1681526020019081526020016000206040518060e0016040529081600082018054600181600116156101000203166002900480601f016020809104026020016040519081016040528092919081815260200182805460018160011615610100020316600290048015613fc55780601f10613f9a57610100808354040283529160200191613fc5565b820191906000526020600020905b815481529060010190602001808311613fa857829003601f168201915b5050505050815260200160018201548152602001600282015481526020016003820154815260200160048201548152602001600582015481526020016006820160009054906101000a900460ff16151515158152505090508d8261016001819052508b826101200181815250508a82610140019073ffffffffffffffffffffffffffffffffffffffff16908173ffffffffffffffffffffffffffffffffffffffff1681525050614073615902565b61408760075430634357855e60e01b614c32565b90506140d36040518060400160405280600581526020017f696e6465780000000000000000000000000000000000000000000000000000008152508c83614c639092919063ffffffff16565b6141526040518060400160405280600881526020017f6578706c6f7265720000000000000000000000000000000000000000000000008152506040518060400160405280600b81526020017f626c6f636b63797068657200000000000000000000000000000000000000000081525083614c639092919063ffffffff16565b6141a06040518060400160405280600681526020017f7075624b65790000000000000000000000000000000000000000000000000000815250836000015183614c639092919063ffffffff16565b60006141d1600660009054906101000a900473ffffffffffffffffffffffffffffffffffffffff1683600854614c96565b9050600f60008154809291906001019190505550600f5460136000838152602001908152602001600020819055508360126000600f54815260200190815260200160002060008201518160000160006101000a81548173ffffffffffffffffffffffffffffffffffffffff021916908373ffffffffffffffffffffffffffffffffffffffff16021790555060208201518160010155604082015181600201556060820151816003015560808201518160040160006101000a81548160ff02191690831515021790555060a08201518160040160016101000a81548160ff02191690831515021790555060c08201518160040160026101000a81548160ff02191690831515021790555060e08201518160040160036101000a81548173ffffffffffffffffffffffffffffffffffffffff021916908373ffffffffffffffffffffffffffffffffffffffff160217905550610100820151816005015561012082015181600601556101408201518160070160006101000a81548173ffffffffffffffffffffffffffffffffffffffff021916908373ffffffffffffffffffffffffffffffffffffffff16021790555061016082015181600801908051906020019061439c9291906157c3565b509050508e73ffffffffffffffffffffffffffffffffffffffff163373ffffffffffffffffffffffffffffffffffffffff167f31ed14fda730b812280a76dbc89d0433229b8e36da632ded057310e86d21e2b68d87606001518560405180848152602001838152602001828152602001935050505060405180910390a3600199505050505050505050509695505050505050565b6000818073ffffffffffffffffffffffffffffffffffffffff16600e60009054906101000a900473ffffffffffffffffffffffffffffffffffffffff1673ffffffffffffffffffffffffffffffffffffffff16146144f6576040517f08c379a00000000000000000000000000000000000000000000000000000000081526004018080602001828103825260158152602001807f3a20546f6b656e206e6f7420737570706f72746564000000000000000000000081525060200191505060405180910390fd5b6000601060003373ffffffffffffffffffffffffffffffffffffffff1673ffffffffffffffffffffffffffffffffffffffff16815260200190815260200160002060010154146145ae576040517f08c379a00000000000000000000000000000000000000000000000000000000081526004018080602001828103825260148152602001807f3a20506f6f6c20616c726561647920657869737400000000000000000000000081525060200191505060405180910390fd5b60003390506145be818588614f4e565b6145c6615843565b6040518060e0016040528087815260200160018152602001888152602001600081526020018881526020016000815260200160001515815250905080601060008473ffffffffffffffffffffffffffffffffffffffff1673ffffffffffffffffffffffffffffffffffffffff168152602001908152602001600020600082015181600001908051906020019061465d929190615882565b506020820151816001015560408201518160020155606082015181600301556080820151816004015560a0820151816005015560c08201518160060160006101000a81548160ff0219169083151502179055509050506146bb61571a565b6040518061018001604052808473ffffffffffffffffffffffffffffffffffffffff168152602001600143038152602001600081526020018981526020016000151581526020016000151581526020016000151581526020018473ffffffffffffffffffffffffffffffffffffffff1681526020016001815260200160008152602001600073ffffffffffffffffffffffffffffffffffffffff16815260200160405180602001604052806000815250815250905080601160008573ffffffffffffffffffffffffffffffffffffffff1673ffffffffffffffffffffffffffffffffffffffff16815260200190815260200160002060006001815260200190815260200160002060008201518160000160006101000a81548173ffffffffffffffffffffffffffffffffffffffff021916908373ffffffffffffffffffffffffffffffffffffffff16021790555060208201518160010155604082015181600201556060820151816003015560808201518160040160006101000a81548160ff02191690831515021790555060a08201518160040160016101000a81548160ff02191690831515021790555060c08201518160040160026101000a81548160ff02191690831515021790555060e08201518160040160036101000a81548173ffffffffffffffffffffffffffffffffffffffff021916908373ffffffffffffffffffffffffffffffffffffffff160217905550610100820151816005015561012082015181600601556101408201518160070160006101000a81548173ffffffffffffffffffffffffffffffffffffffff021916908373ffffffffffffffffffffffffffffffffffffffff1602179055506101608201518160080190805190602001906149499291906157c3565b509050508273ffffffffffffffffffffffffffffffffffffffff167f7a011ddbb8da163de89faccb018bb75c616e6ac270738b8bf1785f08ae1b2d6f896040518082815260200191505060405180910390a260019450505050509392505050565b3373ffffffffffffffffffffffffffffffffffffffff16600c60009054906101000a900473ffffffffffffffffffffffffffffffffffffffff1673ffffffffffffffffffffffffffffffffffffffff1614614a6d576040517f08c379a00000000000000000000000000000000000000000000000000000000081526004018080602001828103825260198152602001807f3a2063616c6c6572206973206e6f7420746865206f776e65720000000000000081525060200191505060405180910390fd5b8060078190555050565b600e60009054906101000a900473ffffffffffffffffffffffffffffffffffffffff1681565b600073ffffffffffffffffffffffffffffffffffffffff16600e60009054906101000a900473ffffffffffffffffffffffffffffffffffffffff1673ffffffffffffffffffffffffffffffffffffffff161415614b40578173ffffffffffffffffffffffffffffffffffffffff166108fc829081150290604051600060405180830381858888f19350505050158015614b3a573d6000803e3d6000fd5b50614c2e565b600e60009054906101000a900473ffffffffffffffffffffffffffffffffffffffff1673ffffffffffffffffffffffffffffffffffffffff1663a9059cbb83836040518363ffffffff1660e01b8152600401808373ffffffffffffffffffffffffffffffffffffffff1673ffffffffffffffffffffffffffffffffffffffff16815260200182815260200192505050602060405180830381600087803b158015614be957600080fd5b505af1158015614bfd573d6000803e3d6000fd5b505050506040513d6020811015614c1357600080fd5b8101908080519060200190929190505050614c2d57600080fd5b5b5050565b614c3a615902565b614c42615902565b614c5985858584615099909392919063ffffffff16565b9150509392505050565b614c7a82846080015161514990919063ffffffff16565b614c9181846080015161514990919063ffffffff16565b505050565b600030600454604051602001808373ffffffffffffffffffffffffffffffffffffffff1673ffffffffffffffffffffffffffffffffffffffff1660601b815260140182815260200192505050604051602081830303815290604052805190602001209050600454836060018181525050836005600083815260200190815260200160002060006101000a81548173ffffffffffffffffffffffffffffffffffffffff021916908373ffffffffffffffffffffffffffffffffffffffff160217905550807fb5e6e01e79f91267dc17b4e6314d5d4d03593d2ceee0fbb452b750bd70ea5af960405160405180910390a2600260009054906101000a900473ffffffffffffffffffffffffffffffffffffffff1673ffffffffffffffffffffffffffffffffffffffff16634000aea08584614dce8761516e565b6040518463ffffffff1660e01b8152600401808473ffffffffffffffffffffffffffffffffffffffff1673ffffffffffffffffffffffffffffffffffffffff16815260200183815260200180602001828103825283818151815260200191508051906020019080838360005b83811015614e55578082015181840152602081019050614e3a565b50505050905090810190601f168015614e825780820380516001836020036101000a031916815260200191505b50945050505050602060405180830381600087803b158015614ea357600080fd5b505af1158015614eb7573d6000803e3d6000fd5b505050506040513d6020811015614ecd57600080fd5b8101908080519060200190929190505050614f33576040517f08c379a00000000000000000000000000000000000000000000000000000000081526004018080602001828103825260238152602001806159c96023913960400191505060405180910390fd5b60016004600082825401925050819055508090509392505050565b600073ffffffffffffffffffffffffffffffffffffffff168273ffffffffffffffffffffffffffffffffffffffff161415614f9457348114614f8f57600080fd5b615094565b8173ffffffffffffffffffffffffffffffffffffffff166323b872dd8430846040518463ffffffff1660e01b8152600401808473ffffffffffffffffffffffffffffffffffffffff1673ffffffffffffffffffffffffffffffffffffffff1681526020018373ffffffffffffffffffffffffffffffffffffffff1673ffffffffffffffffffffffffffffffffffffffff1681526020018281526020019350505050602060405180830381600087803b15801561504f57600080fd5b505af1158015615063573d6000803e3d6000fd5b505050506040513d602081101561507957600080fd5b810190808051906020019092919050505061509357600080fd5b5b505050565b6150a1615902565b6150b18560800151610100615375565b508385600001818152505082856020019073ffffffffffffffffffffffffffffffffffffffff16908173ffffffffffffffffffffffffffffffffffffffff16815250508185604001907bffffffffffffffffffffffffffffffffffffffffffffffffffffffff191690817bffffffffffffffffffffffffffffffffffffffffffffffffffffffff191681525050849050949350505050565b61515682600383516153c9565b615169818361550e90919063ffffffff16565b505050565b6060600360009054906101000a900473ffffffffffffffffffffffffffffffffffffffff1673ffffffffffffffffffffffffffffffffffffffff166340429946905060e01b60008084600001518560200151866040015187606001516001896080015160000151604051602401808973ffffffffffffffffffffffffffffffffffffffff1673ffffffffffffffffffffffffffffffffffffffff1681526020018881526020018781526020018673ffffffffffffffffffffffffffffffffffffffff1673ffffffffffffffffffffffffffffffffffffffff168152602001857bffffffffffffffffffffffffffffffffffffffffffffffffffffffff19167bffffffffffffffffffffffffffffffffffffffffffffffffffffffff1916815260200184815260200183815260200180602001828103825283818151815260200191508051906020019080838360005b838110156152d85780820151818401526020810190506152bd565b50505050905090810190601f1680156153055780820380516001836020036101000a031916815260200191505b509950505050505050505050604051602081830303815290604052907bffffffffffffffffffffffffffffffffffffffffffffffffffffffff19166020820180517bffffffffffffffffffffffffffffffffffffffffffffffffffffffff83818316178352505050509050919050565b61537d61596f565b60006020838161538957fe5b06146153a2576020828161539957fe5b06602003820191505b81836020018181525050604051808452600081528281016020016040525082905092915050565b601781116153f6576153f08160058460ff16901b60ff16178461553090919063ffffffff16565b50615509565b60ff81116154385761541b601860058460ff16901b178461553090919063ffffffff16565b50615432816001856155509092919063ffffffff16565b50615508565b61ffff811161547b5761545e601960058460ff16901b178461553090919063ffffffff16565b50615475816002856155509092919063ffffffff16565b50615507565b63ffffffff81116154c0576154a3601a60058460ff16901b178461553090919063ffffffff16565b506154ba816004856155509092919063ffffffff16565b50615506565b67ffffffffffffffff8111615505576154ec601b60058460ff16901b178461553090919063ffffffff16565b50615503816008856155509092919063ffffffff16565b505b5b5b5b5b505050565b61551661596f565b61552883846000015151848551615572565b905092915050565b61553861596f565b615548838460000151518461562b565b905092915050565b61555861596f565b615569848560000151518585615679565b90509392505050565b61557a61596f565b825182111561558857600080fd5b846020015182850111156155b3576155b28560026155ac88602001518887016156da565b026156f6565b5b6000808651805187602083010193508088870111156155d25787860182525b60208701925050505b602084106155fe57805182526020820191506020810190506020840393506155db565b60006001856020036101000a03905080198251168184511681811785525050879350505050949350505050565b61563361596f565b836020015183106156505761564f8460028660200151026156f6565b5b835180516020858301018481538186141561566c576001820183525b5050508390509392505050565b61568161596f565b8460200151848301111561569f5761569e856002868501026156f6565b5b60006001836101000a03905085518386820101858319825116178152815185880111156156cc5784870182525b505085915050949350505050565b6000818311156156ec578290506156f0565b8190505b92915050565b6060826000015190506157098383615375565b50615714838261550e565b50505050565b604051806101800160405280600073ffffffffffffffffffffffffffffffffffffffff168152602001600081526020016000815260200160008152602001600015158152602001600015158152602001600015158152602001600073ffffffffffffffffffffffffffffffffffffffff1681526020016000815260200160008152602001600073ffffffffffffffffffffffffffffffffffffffff168152602001606081525090565b828054600181600116156101000203166002900490600052602060002090601f016020900481019282601f1061580457805160ff1916838001178555615832565b82800160010185558215615832579182015b82811115615831578251825591602001919060010190615816565b5b50905061583f9190615989565b5090565b6040518060e001604052806060815260200160008152602001600081526020016000815260200160008152602001600081526020016000151581525090565b828054600181600116156101000203166002900490600052602060002090601f016020900481019282601f106158c357805160ff19168380011785556158f1565b828001600101855582156158f1579182015b828111156158f05782518255916020019190600101906158d5565b5b5090506158fe9190615989565b5090565b6040518060a0016040528060008019168152602001600073ffffffffffffffffffffffffffffffffffffffff16815260200160007bffffffffffffffffffffffffffffffffffffffffffffffffffffffff19168152602001600081526020016159696159ae565b81525090565b604051806040016040528060608152602001600081525090565b6159ab91905b808211156159a757600081600090555060010161598f565b5090565b90565b60405180604001604052806060815260200160008152509056fe756e61626c6520746f207472616e73666572416e6443616c6c20746f206f7261636c653a205061796d656e742068617320616c7265616479206265656e2066696e616c69736564536f75726365206d75737420626520746865206f7261636c65206f66207468652072657175657374a2646970667358221220afdb4d0b8023ab4ef14cf798ef9a66d99ee46f83b07e928a193a5cc4ab3277b764736f6c63430006000033",
  "source": "// SPDX-License-Identifier: MIT\npragma solidity ^0.6.0;\n\n// import \"https://raw.githubusercontent.com/smartcontractkit/chainlink/develop/evm-contracts/src/v0.6/ChainlinkClient.sol\";\nimport \"@chainlink/contracts/src/v0.6/ChainlinkClient.sol\";\n\n/** @title Token abstract. */\ncontract Token {\n    function transfer(address _to, uint256 _value) public returns (bool success) {}\n    function balanceOf(address account) public view returns (uint256){}\n    function transferFrom(address from, address to, uint tokens) public returns (bool success){}\n}\n\n/** @title EventEmitter abstract. */\ncontract EventEmitter {\n    function emitFulfill(uint256 _requestId) public returns (bool) {}\n}\n\n/** @title SwipSwapPool Contract. */\ncontract SwipSwapPool is ChainlinkClient {\n    \n    event PoolInitialized(address indexed _deployer, address indexed _initiator, address indexed _token);\n    event PoolJoined(address indexed _poolOwner, uint256 _amount);\n    event NewLock(address indexed _locker, address indexed _poolAddress, uint256 _index, uint256 _amount);\n    event FulfillLock(address indexed _locker, address indexed _lockAddress, uint256 _index, uint256 _amount, bytes32 _requestID);\n    event Fulfill(string _requestId);\n    \n    address private oracle;\n    bytes32 private jobId;\n    uint256 private fee;\n    bool private initialized;\n    \n    uint256 public coindecimals;\n    \n    address payable public initiator;\n    address payable public deployer;\n    address public eventEmitter;\n    Token public token;\n    \n    uint256 public fulfillReqCount;\n    \n    struct Pool {\n        string pubkey;\n        uint256 index;\n        uint256 initAmount;\n        uint256 unlockedAmount;\n        uint256 lockedAmount;\n        uint256 filledAmount;\n        bool isLocked;\n    }\n    \n    struct Lock {\n        address payable locker;\n        uint256 expBlock;\n        uint256 coinAmount;\n        uint256 tokenAmount;\n        bool isCancelled;\n        bool isPaid;\n        bool isFinalised;\n        // bytes32 data;\n        address lockAddress;\n        uint256 index;\n        uint256 predefinedCall;\n        address callContractAddress;\n        bytes callData;\n    }\n    \n    mapping (address => Pool) pools;\n    mapping (address => mapping (uint256 => Lock)) locks;\n    mapping (uint256 => Lock) pendingPaymentIndexLock;\n    mapping (bytes32 => uint256) requestIdFulfillReqCount;\n    \n    constructor() public {\n        setChainlinkToken(0x87AE97F105Eba72E3B26dBB27B09bDE5943Df2bD);\n        oracle = 0xDccc8028CFB3f8d489719bBFC7389b00b3D4AFC3;\n        jobId = \"387c3a2344e04c398587afd13f50cea5\";\n        fee = 0.1 * 10 ** 18; // 0.1 LINK\n    }\n    \n    /** @dev Initializes a pool after the contract has been deployed by the factory.\n      * @param _initiator Address of the account that initiates the pool.\n      * @param _token contract Address of the token the pool is being created for.\n      * @param _coindecimals Decimals of the token being added.\n      * @param _eventEmitter Address of the eventEmitter contract.\n      */\n    function initialize(address payable _initiator, address _token, uint256 _coindecimals, address _eventEmitter) public {\n        deployer = msg.sender; // this should be the deploying contract\n        initiator = _initiator;\n        token = Token(_token);\n        coindecimals = _coindecimals;\n        eventEmitter = _eventEmitter;\n        \n        emit PoolInitialized(msg.sender, _initiator, _token);\n    }\n    \n    /** @dev Transfers token.\n      * @param _sender Address of the account sending the token.\n      * @param _token Contract Address of the token being added.\n      * @param _amount Amount of token to be transerred.\n      */\n    function transferToken(address _sender, address _token, uint256 _amount) private {\n        if(_token == address(0)){\n            require(_amount == msg.value);\n        }else {\n            require(Token(_token).transferFrom(_sender, address(this), _amount));\n        }\n    }\n    \n    /** @dev Transfers token out of the SwipSwapPool smart contract.\n      * @param _to Address where to token is being transferred to.\n      * @param _amount The amount of tokens to be transferred.\n      */\n    function transferTokenOut(address payable _to, uint256 _amount) private {\n        if(address(token) == address(0)){\n            _to.transfer(_amount);\n        }else {\n            require(Token(token).transfer(_to, _amount));\n        }\n    }\n    \n    /** @dev Sets address of the eventEmitter.\n      * @param _eventEmitter Address of the event emitter contract.\n      */\n    function setEventEmitterAddress(address _eventEmitter) public {\n        eventEmitter = _eventEmitter;\n    }\n    \n    /** @dev Sets byte32 value of the jobID variable.\n      * @param _jobID the jobID.\n    */\n    function setJobID(bytes32 _jobID) public onlyOwner() {\n        jobId = _jobID;\n    }\n    \n    \n    /** @dev Enables an account to join an existing pool.\n      * @param _amount The amount of token an account wants to contribute to the pool.\n      * @param _pubkey A deterministic public key address such as bitcoin xpub which will be used to compute the external addresses for transactions in the pool\n      * @param _token The address of the token the account wants to add to the pool.\n    */    \n    function joinPool(uint256 _amount, string memory _pubkey, address _token) onlyInitToken(_token)  public payable returns (bool) {\n        require(pools[msg.sender].index == 0, \": Pool already exist\");\n        address payable _sender = msg.sender;\n        transferToken(_sender, _token, _amount);\n        Pool memory newPool = Pool({\n            pubkey: _pubkey,\n            index: 1,\n            initAmount: _amount,\n            unlockedAmount: 0,\n            lockedAmount: _amount,\n            filledAmount: 0,\n            isLocked: false\n        });\n        pools[_sender] = newPool;\n        Lock memory newLock = Lock({\n            locker: _sender,\n            expBlock: block.number - 1, // this should be changed\n            tokenAmount: _amount,\n            coinAmount: 0,\n            isCancelled: false,\n            isPaid: false,\n            isFinalised: false,\n            // data: 0x0\n            lockAddress: _sender,\n            index: 1,\n            predefinedCall: 0,\n            callContractAddress: address(0),\n            callData: \"\"\n        });\n        locks[_sender][1] = newLock;\n        \n        emit PoolJoined(_sender, _amount);\n        return true;\n    }\n    \n    \n    /** @dev Gets the details of a given pool.\n      * @param _poolAddress returns the address.\n      * @return pubkey The pubkey associated with the pool.\n      * @return index The index location of the pool in the SwipSwap contract.\n      * @return initAmount The amount used to initialize the pool.\n      * @return unlockedAmount The amount already unlocked from the pool.\n      * @return lockedAmount The amount still available in the pool.\n      * @return filledAmount the amount that has already been filled in the pool.\n    */\n    \n    function getPoolDetails(address _poolAddress) public view returns (\n            string memory pubkey,\n            uint256 index,\n            uint256 initAmount,\n            uint256 unlockedAmount,\n            uint256 lockedAmount,\n            uint256 filledAmount,\n            bool isLocked\n        ) {\n        Pool memory _pool = pools[_poolAddress];\n        pubkey = _pool.pubkey;\n        index = _pool.index;\n        initAmount = _pool.initAmount;\n        unlockedAmount = _pool.unlockedAmount;\n        lockedAmount = _pool.lockedAmount;\n        filledAmount = _pool.filledAmount;\n        isLocked = _pool.isLocked;\n    }\n    \n    \n    /** @dev Gets the detail of a specific locked amount created for a pool.\n      * @param _poolAddress The Address of the pool.\n      * @param _index The index of the pool.\n      * @return locker Address of the account that created this lock.\n      * @return expBlock The block number that this lock is set to expire.\n      * @return tokenAmount The amounts of token that is locked.\n      * @return isCancelled Boolean showing whether this lock has been canceled.\n      * @return isFinalised Boolean showing whether this lock has been finalized.\n      * @return isPaid Boolean showing whether this lock has been paid and waiting for finalization.\n    */\n    function getLockDetails(address _poolAddress, uint256 _index) public view returns (\n            address locker,\n            uint256 expBlock,\n            uint256 tokenAmount,\n            bool isCancelled,\n            bool isFinalised,\n            bool isPaid\n        ){\n            Lock memory _lock = locks[_poolAddress][_index];\n            locker = _lock.locker;\n            expBlock = _lock.expBlock;\n            tokenAmount = _lock.tokenAmount;\n            isCancelled = _lock.isCancelled;\n            isFinalised = _lock.isFinalised;\n            isPaid = _lock.isPaid;\n            // data = _lock.data;\n    }\n    \n    // function newLock( bytes32 _data, address _poolAddress, uint256 _index, uint256 _amount, address _token)\\\n    /** @dev Creates a new lock from an existing pool address.\n      * @param _token Address of the token the lock is being created for.\n      * @param _poolAddress The Address of the pool the lock is being associated with.\n      * @param _index The index of the pool.\n      * @return true\n    */\n    function newLock(address _token, address _poolAddress, uint256 _index, uint256 _coinAmount) // 1btc => 100eth | 100*10**18 | 1*10**7 => 100*10**(18-8) => 10*10**18\n    public\n    payable\n    onlyReusableLock(_poolAddress, _index)\n    onlyInitToken(_token)\n    returns (bool) {\n        Pool memory _pool = pools[_poolAddress];\n        uint256 nextIndex;\n        require(!_pool.isLocked, \": Pool is locked by the owner\");\n        address payable _sender = msg.sender;\n        uint256 _tokenAmount = _coinAmount * 100 * 10**(18-coindecimals); // 0.0010000 btc = 100eth  ==> (1 * 10**8)/10**8) * rate(100 eth/btc) * 10**(18) ==> 100 * 10**18\n        // transferToken(_sender, _token, _tokenAmount);\n        if (_index == 0){ // create newLock from balance\n            require(_pool.unlockedAmount >= _tokenAmount, \": Insufficient pool balance\");\n            _pool.unlockedAmount = _pool.unlockedAmount - _tokenAmount;\n            \n        }else {\n            // use existing lock\n            Lock memory _lock = locks[_poolAddress][_index];\n            require(_lock.tokenAmount >= _tokenAmount, \": Insufficient lock balance\");\n            require(_lock.expBlock < block.number, \": Block has not expired\");\n            _pool.unlockedAmount = _pool.unlockedAmount + (_lock.tokenAmount - _tokenAmount);\n            _lock.isCancelled = true;\n            locks[_poolAddress][_index] = _lock;\n        }\n        nextIndex = _pool.index + 1;\n        _pool.index = nextIndex;\n        pools[_poolAddress] = _pool;\n        \n        Lock memory _newLock = Lock({\n            locker: _sender,\n            expBlock: block.number + 3, // this should be changed\n            coinAmount: _coinAmount, // amount of btc should be supplied and amount of token should be calculated and stored\n            tokenAmount: _tokenAmount, \n            isCancelled: false,\n            isPaid: false,\n            isFinalised: false,\n            // data: _data\n            lockAddress: _poolAddress,\n            index: nextIndex,\n            predefinedCall: 0,\n            callContractAddress: address(0),\n            callData: \"\"\n        });\n        locks[_poolAddress][nextIndex] = _newLock;\n        emit NewLock(_sender, _poolAddress, nextIndex, _tokenAmount);\n        return true;\n    }\n    \n    /**\n     * 0 => withdraw\n     * 1 => predefinedCall\n     * 2 => uniswap\n     * \n    **/\n    /** @dev Gets the detail of a specific locked amount created for a pool.\n      * @param _callData (optional) Contains customized instructions such as \"external call to uniswap smart contract\".\n      * @param _lockAddress The address that created the lock.\n      * @param _predefinedCall Some predefined instructions available.\n      * @param _callContractAddress (optional) If callData exists, specify the external contract to be called.\n      * @param _indexStr index of the lock === index of the address paid to in a lock.\n      * @param _index The number format of the index of the lock.\n      * @return success\n    */\n    function fulfillLock(\n        bytes memory _callData, //deposit,addresses\n        address _lockAddress,\n        uint256 _predefinedCall,\n        address _callContractAddress,\n        string memory _indexStr, // to be reviewed\n        uint256 _index // to be reviewed\n    )\n    public\n    onlyLoker(_lockAddress, _index) // is this necessary?\n    onlyFinaliseableLock(_lockAddress, _index)\n    returns (bool success){\n        // ensure link token balance is sufficient\n\n        Lock memory _lock = locks[_lockAddress][_index];\n        Pool memory _pool = pools[_lockAddress];\n        _lock.callData = _callData;\n        _lock.predefinedCall = _predefinedCall;\n        _lock.callContractAddress = _callContractAddress;\n        // paymentIndex++;\n       \n        Chainlink.Request memory request = buildChainlinkRequest(jobId, address(this), this.fulfill.selector);\n        request.add(\"index\", _indexStr);\n        request.add(\"explorer\", \"blockcypher\");\n        request.add(\"pubKey\", _pool.pubkey);\n        bytes32 _requestId = sendChainlinkRequestTo(oracle, request, fee);\n        \n        fulfillReqCount++;\n        requestIdFulfillReqCount[_requestId] = fulfillReqCount;\n        pendingPaymentIndexLock[fulfillReqCount] = _lock;\n        \n        emit FulfillLock(msg.sender, _lockAddress, _index, _lock.tokenAmount, _requestId);\n        return true;\n    }\n\n    /** @dev Changes the status of a lock to fulfilled\n      * @param _requestId will be provided by the calling chainlink node.\n      * @param total_received The amount received for the lock.\n    */  \n    function fulfill(bytes32 _requestId, uint256 total_received) public recordChainlinkFulfillment(_requestId) // Only chainlink node should call this\n    {\n        // only chainlink node should call this function\n        uint256 _fulfillReqCount = requestIdFulfillReqCount[_requestId];\n        Lock memory _lock = pendingPaymentIndexLock[_fulfillReqCount];\n        if(total_received >= _lock.coinAmount){\n            _lock.isPaid = true;\n            pendingPaymentIndexLock[_fulfillReqCount] = _lock;\n            locks[_lock.lockAddress][_lock.index] = _lock;\n            Pool memory _pool = pools[_lock.lockAddress];\n            _pool.filledAmount += _lock.tokenAmount;\n            pools[_lock.lockAddress] = _pool;\n\n            // Fulfill(_requestIdStr);\n            EventEmitter(eventEmitter).emitFulfill(_fulfillReqCount);\n        }\n        \n    }\n    \n    /** @dev Finalizes a lock directive.\n      * @param _fulfillReqCount an identifier generated by this contract, sent to the node and supplied by the chain link node.\n    */      \n    function finaliseLock(uint256 _fulfillReqCount) public returns (bool) { // Not fully implemented\n        Lock memory _lock = pendingPaymentIndexLock[_fulfillReqCount];\n        require(_lock.isPaid, \": Payment has not been confirmed\");\n        require(!_lock.isFinalised, \": Payment has already been finalised\");\n        _lock.isFinalised = true;\n        if(_lock.predefinedCall == 0){\n            _lock.locker.transfer(_lock.tokenAmount);\n            transferTokenOut(_lock.locker, _lock.tokenAmount);\n        }\n        pendingPaymentIndexLock[_fulfillReqCount] = _lock;\n        locks[_lock.lockAddress][_lock.index] = _lock;\n    }\n\n    /** @dev Gets the id of the finaliseLock function.\n      * @return _selector The result in bytes.\n    */  \n    function finaliseLockSelector() public pure returns (bytes4 _selector) {\n        return this.finaliseLock.selector;\n    }\n    \n    \n    function cancelLock() public {}\n    function lockPool() public {}\n    function increasePoolAmount() public {}\n    function withdrawPool() public{}\n\n    modifier onlyInitToken(address _token) {\n        require(address(token) == _token, \": Token not supported\");\n        _;\n    }\n    \n    modifier onlyOwner() {\n        require(deployer == msg.sender, \": caller is not the owner\");\n        _;\n    }\n    \n    modifier onlyLoker(address _lockPool, uint256 _index) {\n        require(msg.sender == getLocker(_lockPool, _index), \": caller is not the locker\");\n        _;\n    }\n    \n    modifier onlyReusableLock(address _lockPool, uint256 _index) {\n        Lock memory lock = locks[_lockPool][_index];\n        require(lock.expBlock < block.number, \"Block has not expired\");\n        require(!lock.isFinalised, \": lock is already finalised\");\n        require(!lock.isCancelled, \": lock is isCancelled\");\n        _;\n    }\n    \n    modifier onlyFinaliseableLock(address _lockPool, uint256 _index) {\n        Lock memory lock = locks[_lockPool][_index];\n        require(lock.expBlock > block.number, \"Block has expired\");\n        require(!lock.isFinalised, \": lock is already finalised\");\n        require(!lock.isCancelled, \": lock is isCancelled\");\n        _;\n    }\n    \n    modifier onlyNonFinalisedLock(address _lockPool, uint256 _index) {\n        Lock memory lock = locks[_lockPool][_index];\n        require(!lock.isFinalised, \": lock is already finalised\");\n        _;\n    }\n    \n    function getLocker(address _lockPool, uint256 _index) public view returns (address locker) {\n        return (locks[_lockPool][_index]).locker;\n    }\n    \n    function getZeroAddress() public pure returns (address) {\n        return address(0);\n    }\n    \n    function bytes32ToString(bytes32 _bytes32) public pure returns (string memory) {\n        uint8 i = 0;\n        while(i < 32 && _bytes32[i] != 0) {\n            i++;\n        }\n        bytes memory bytesArray = new bytes(i);\n        for (i = 0; i < 32 && _bytes32[i] != 0; i++) {\n            bytesArray[i] = _bytes32[i];\n        }\n        return string(bytesArray);\n    }\n    \n    function stringToBytes32(string memory source) public pure returns (bytes32 result) {\n        bytes memory tempEmptyStringTest = bytes(source);\n        if (tempEmptyStringTest.length == 0) {\n            return 0x0;\n        }\n\n        assembly { // solhint-disable-line no-inline-assembly\n            result := mload(add(source, 32))\n        }\n    }\n\n}",
  "sourcePath": "/home/abdulhafiz/Documents/Projects/swipswap/contracts/contracts/SwipSwapPool.sol",
  "compiler": {
    "name": "solc",
    "version": "0.6.0+commit.26b70077.Emscripten.clang"
  },
  "schemaVersion": "3.2.5",
  "updatedAt": "2020-10-23T10:31:36.353Z",
  "networkType": "ethereum",
  "devdoc": {
    "methods": {
      "finaliseLock(uint256)": {
        "details": "Finalizes a lock directive.",
        "params": {
          "_fulfillReqCount": "an identifier generated by this contract, sent to the node and supplied by the chain link node."
        }
      },
      "finaliseLockSelector()": {
        "details": "Gets the id of the finaliseLock function.",
        "returns": {
          "_selector": "The result in bytes."
        }
      },
      "fulfill(bytes32,uint256)": {
        "details": "Changes the status of a lock to fulfilled",
        "params": {
          "_requestId": "will be provided by the calling chainlink node.",
          "total_received": "The amount received for the lock."
        }
      },
      "fulfillLock(bytes,address,uint256,address,string,uint256)": {
        "details": "Gets the detail of a specific locked amount created for a pool.",
        "params": {
          "_callContractAddress": "(optional) If callData exists, specify the external contract to be called.",
          "_callData": "(optional) Contains customized instructions such as \"external call to uniswap smart contract\".",
          "_index": "The number format of the index of the lock.",
          "_indexStr": "index of the lock === index of the address paid to in a lock.",
          "_lockAddress": "The address that created the lock.",
          "_predefinedCall": "Some predefined instructions available."
        },
        "returns": {
          "success": "success"
        }
      },
      "getLockDetails(address,uint256)": {
        "details": "Gets the detail of a specific locked amount created for a pool.",
        "params": {
          "_index": "The index of the pool.",
          "_poolAddress": "The Address of the pool."
        },
        "returns": {
          "expBlock": "The block number that this lock is set to expire.",
          "isCancelled": "Boolean showing whether this lock has been canceled.",
          "isFinalised": "Boolean showing whether this lock has been finalized.",
          "isPaid": "Boolean showing whether this lock has been paid and waiting for finalization.",
          "locker": "Address of the account that created this lock.",
          "tokenAmount": "The amounts of token that is locked."
        }
      },
      "getPoolDetails(address)": {
        "details": "Gets the details of a given pool.",
        "params": {
          "_poolAddress": "returns the address."
        },
        "returns": {
          "filledAmount": "the amount that has already been filled in the pool.",
          "index": "The index location of the pool in the SwipSwap contract.",
          "initAmount": "The amount used to initialize the pool.",
          "lockedAmount": "The amount still available in the pool.",
          "pubkey": "The pubkey associated with the pool.",
          "unlockedAmount": "The amount already unlocked from the pool."
        }
      },
      "initialize(address,address,uint256,address)": {
        "details": "Initializes a pool after the contract has been deployed by the factory.",
        "params": {
          "_coindecimals": "Decimals of the token being added.",
          "_eventEmitter": "Address of the eventEmitter contract.",
          "_initiator": "Address of the account that initiates the pool.",
          "_token": "contract Address of the token the pool is being created for."
        }
      },
      "joinPool(uint256,string,address)": {
        "details": "Enables an account to join an existing pool.",
        "params": {
          "_amount": "The amount of token an account wants to contribute to the pool.",
          "_pubkey": "A deterministic public key address such as bitcoin xpub which will be used to compute the external addresses for transactions in the pool",
          "_token": "The address of the token the account wants to add to the pool."
        }
      },
      "newLock(address,address,uint256,uint256)": {
        "details": "Creates a new lock from an existing pool address.",
        "params": {
          "_index": "The index of the pool.",
          "_poolAddress": "The Address of the pool the lock is being associated with.",
          "_token": "Address of the token the lock is being created for."
        },
        "returns": {
          "_0": "true"
        }
      },
      "setEventEmitterAddress(address)": {
        "details": "Sets address of the eventEmitter.",
        "params": {
          "_eventEmitter": "Address of the event emitter contract."
        }
      },
      "setJobID(bytes32)": {
        "details": "Sets byte32 value of the jobID variable.",
        "params": {
          "_jobID": "the jobID."
        }
      }
    },
    "title": "SwipSwapPool Contract. "
  },
  "userdoc": {
    "methods": {}
  }
}